:020000040800F2
:1000000000200010CD2703089924020815360008A7
:1000100095240208912402088D24020800000000A3
:100020000000000000000000000000008924020819
:10003000852402080000000081240208ED2A00083F
:100040003528030835280308352803083528030810
:1000500035280308352803084D3800087939000889
:100060003D39000801390008C538000871560008FC
:1000700061560008515600084156000831560008E4
:100080001D560008095600083528030835280308BE
:10009000152F020835280308352803088938000879
:1000A000991F0008E91F00083528030811200008DF
:1000B000D91F0008C91F0008352803083528030880
:1000C0003528030835280308352803083528030890
:1000D00035280308192C00089D2B0008212B000847
:1000E0001138000835280308712402083528030850
:1000F000A91F000835280308B91F00083528030880
:100100000000000000000000000000003528030887
:1001100035280308352803086147010845470108C9
:10012000F5550008E1550008CD550008B9550008FF
:10013000A555000835280308000000000000000055
:100140003528030835280308352803080000000077
:10015000000000000000000000000000000000009F
:1001600000000000000000003528030835280308BF
:100170003528030800000000000000000000000017
:0801800000000000352803080F
:1001880038B50B4C23688BB15A68821A002A054689
:1001980004DA0CE05A68AA1A002A07DB9A68226077
:1001A80018461A6890472368002BF3D138BD38BD2C
:1001B800F03800200B4B002210B4027203F1DC046B
:1001C800012102E0072A09DC9979890702D5197902
:1001D800815401329C4203F11403F3D15DF8044BBE
:1001E800704700BF087403081F230370704700BFDF
:1001F800012310B415211424222244704171C270C5
:100208000370037183705DF8044B70472DE9F0416A
:100218000B78057BDB43DFB200F1130200F11D030D
:1002280002F8015F9342FBD1DFF890E000F127016B
:10023800002203F8012F9942FBD11421052400263E
:1002480047FA04F303F00103002B1E4414BF4FF0D8
:1002580019084FF00A0814F0010FF6B214BFAC46A3
:100268004FF0000C0023CA1810FA82F201334345FC
:1002780082F814C0F7D15A1E92B20132013C8B1891
:10028800621C9BB201D01946DAE716F0010F14BFC1
:1002980019240A240022991810FA81F10132A24285
:1002A8000D75F8D113449BB25A1C0344002192B235
:1002B8001975AEF800200261BDE8F081C01E00206B
:1002C8002DE9F04FDFF890A0BAF802300B3383B075
:1002D8001FFA83F901F1060B4FF001084FF0000CEB
:1002E800002711F801EB3E464C460122A4F10B030E
:1002F8009BB2019105E001339BB2017B29759C42B9
:1003080008D0C518002AF6D1C51801339BB29C4203
:100318002A75F6D103190136092F019983F814C0FB
:10032800F6B20CD0092E15D008FA07F313EA0E0F0F
:1003380014BF012200220C34A4B20137D6E709F118
:10034800780959451FFA89F9CAD1AAF802C003B039
:10035800BDE8F08F0022EEE7C01E00202DE9F0472F
:10036800DFF85C80B8F8043004331FFA83FC01F12D
:1003780009094FF0010E11F8017B64460026231F7E
:100388000EFA06F29BB23A40C2B1B0F80CA0C518FA
:1003980001339BB29C4285F814A0F5D10136043490
:1003A800082EA4B2EBD10CF1200C49451FFA8CFCA5
:1003B800E1D10023A8F80430BDE8F0879246E6E7CB
:1003C800C01E002010B40268047B11680223A340F9
:1003D800194209D00649406800240C7001684FF69C
:1003E800FE742140016053605DF8044B704700BF04
:1003F800284C002070B4EFF31186502383F3128841
:10040800436B1A68D20720D45D686DB9446A826A62
:10041800944217D081691144D9600ED9A21A5A6042
:100428008462002280F850201A6842F00102F1B27A
:100438001A6081F3118870BC704701698A1A5A6082
:100448008562EEE7012380F85030F1B281F311881C
:1004580070BC7047436A8269D154436A0169426B30
:1004680001338B4228BF00234362002A2FD0EFF3C9
:100478001181502383F31288436B1A68D2072CD456
:1004880070B45E686EB9456A826A954217D084690D
:100498001444DC600ED9AA1A5A608562002280F8DA
:1004A80050201A6842F00102C9B21A6081F311881B
:1004B80070BC70470469A21A5A608662EEE701238D
:1004C80080F85030C9B281F3118870BC7047C26C93
:1004D800136843F0800313607047C9B281F3118831
:1004E800704700BF026B10B462B1036CC268446904
:1004F800D11A013B615C5DF8044B08BF13460364E5
:10050800C8B27047016A4369C4685B5C0131A142A3
:1005180028BF114601625DF8044BD8B2704700BF8E
:10052800436B13B190F850007047836A406A181AF9
:10053800B0FA80F040097047416A836A99420AD349
:10054800CB1A416B026961B14968501E0B44834262
:100558000AD2C01A704702691144CB1A416B0029AC
:10056800F2D1501EC01A704700207047036B43B188
:10057800026C5B6893422FBF981AC0689B1AC01818
:100588007047C269036A9A422FBFD01AC0688018A0
:10059800C01A70470A4B30B503F1140493F90020D0
:1005A8005D78072AC8BF143A811804330D7313F80D
:1005B800025C855413F8012C0A76A342EED130BDB3
:1005C8000453030803682DE9F041DF691FB13B4676
:1005D800BDE8F0411847002A164611DD04460D46CD
:1005E8000E4400E023689B68204698470028F9D00D
:1005F800236815F8011B1B6820469847AE42F1D1C5
:10060800BDE8F08100232822027043708370C37014
:100618007047232303702423C370252383712D235C
:1006280043702E2303712F23C371704730B483683E
:1006380013B11C689B882385436840F2E93401E0C4
:10064800002C37D01D89013C15F0020FA4B2F7D059
:10065800197303F10C0540F2E93101E000294BD090
:100668001C89013914F0010F89B2F7D02B7843683F
:1006780040F2E93101E000292DD01C89013914F03C
:10068800020F89B2F7D01A7303F10C0440F2E93271
:1006980001E0002A41D01989013A11F0010F92B204
:1006A800F7D02378836813B11A689B889361012077
:1006B80030BC704721498B4204D0A1F578418B4268
:1006C800D6D101241E4901EB04146189013189B294
:1006D80061816189CCE7194A934204D0A2F5784236
:1006E8009342DFD10121164B03EB01114B890133F2
:1006F8009BB24B814B89D5E7104CA34203D01149DB
:100708008B42B4D101210E4B03EB01114B8901330C
:100718009BB24B814B894368AAE708498B4203D0B7
:10072800084A9342BED10122054B03EB02125389BA
:1007380001339BB253815389B4E700BF00300140B5
:10074800BC63002000380040002870B51EDB092873
:10075800044620DD012303EB83035B00B0FBF3F2C7
:10076800092AF8D87BB10E4EB4FBF3F00928CCBFA8
:1007780057223022A6FB03E5024403FB1044EB0892
:1007880001F8012BF0D100230B7070BD2D230B70E5
:1007980040420131DBE7303001F8010BF3E700BFDD
:1007A800CDCCCCCC884230B44FF001042ED301FB21
:1007B80004F4B0FBF4F58D42F9D284B1AAB901E092
:1007C800B0FBF4F5092DCCBF572230222A4404FB94
:1007D800150003F8012BB4FBF1F4002CF0D1002232
:1007E8001A7030BC7047B0FBF4F5092DCCBF372226
:1007F80030222A4404FB150003F8012BB4FBF1F462
:10080800002CF0D100221A7030BC70470546002A2F
:10081800EBD1D7E703685A1C02601970704700BF14
:100828002DE9F047089C2578002B804689460CBFA7
:100838004FF0200A4FF0300A661C35B3002A29DD34
:10084800334601E0024698B113F8011B501E0029F7
:10085800F8D1971E60B13D46013D51464046C84714
:100868006B1C002BF8DC257827EAE770013055B1BE
:10087800041B29464046C847301916F8015B002D6D
:10088800F7D1BDE8F087BDE8F087002A04DC2846E8
:10089800BDE8F0870020EBE7571EDCE78368426875
:1008A800D0ED037A00EB83010133934281ED040A12
:1008B800836004BF0023836000EB830393ED047A15
:1008C800036870EE277A9A42C0ED037A77EEC77A0A
:1008D800C0ED037A0CDA013307EE103AF8EEC76A76
:1008E800B7EE007A87EEA60A036030EE070A704773
:1008F80007EE102AB8EEC77A87EE870A704700BF5E
:1009080090ED057A90ED004AD0ED066AD0ED014AE7
:10091800D0ED047A90ED035AD0ED025AA4EE007A95
:10092800B0EE406AB0EE470AB0EE667AA6EE247AD8
:1009380067EEC07AA0EE457AE6EE257A80ED057A74
:10094800C0ED067A704700BFD0ED057A90ED013A08
:10095800D0ED003AD0ED064A90ED024A90ED077AC4
:1009680090ED035A90ED086AD0ED045AC0ED067A6E
:10097800F0EE406A27EE830AC0ED056AA3EEA60AE8
:1009880080ED087AA4EE240AA5EE470AA5EEC60A69
:1009980080ED070A704700BFD0ED007A90ED017A2C
:1009A80030EE670AE7EE007AB0EE670AC0ED007A2B
:1009B800704700BF704700BF0A44914214D030B45A
:1009C8000139551E41F2210211F8014F082380EA2E
:1009D800042004044CBF82EA40004000013B80B27E
:1009E800F7D18D42F0D130BC704700BF2DE9F04FF0
:1009F800DFF81CB2DFF81CE2BBF80020DEF8086064
:100A0800BBF90430BBF90250BBF90A80C2EB2614CB
:100A180004FB04F424135200C2EBE60203FB04F3C4
:100A280005FB02F29B1303EBE223B3F5FA364FEA18
:100A3800E37589B045F1FF373246A6FB0645CDE997
:100A4800024502FB07F205EB4202CDE90467029E6C
:100A5800BBF90840039208FB02FC4FEAE87906FB61
:100A680009CC3A46A8FB0689049ECBF81830E5174E
:100A780004FB02F206FB0522A4FB0667E1441744C7
:100A88004FEA182242EA096200924FEA29220192AB
:100A98003D03DDE90078340345EA16553F19BBF8F4
:100AA8000660069048EB05083C1C48F5004503EB3A
:100AB8008302A4FB068906FB0599803213124FEACC
:100AC80069064FEAE977079356EA07038A4600F072
:100AD8009280DDE90489BBF90E20DEF80C40BBF9F1
:100AE80010004946C4F5801ED317DDE9024502FB14
:100AF80001F108FB0311A2FB08230B444FEA434909
:100B08002B46C11700FB03F304FB0133A0FB0401D0
:100B1800BBF90C401944E30001937346DC1700232A
:100B2800009349EAD2394FEA4248DDE9002310EB45
:100B3800080041EB0901E50712184FEACE744B4152
:100B480045EA5E05A41A65EB0305221945EB050382
:100B580012196B4199019001801841EA926159413B
:100B68008B00820043EA9073101943EB05018B0058
:100B7800820043EA907310460019194632463B46F4
:100B8800694131F04BFCBBF916204C13450B45EA83
:100B9800C14502FB04F6D31705FB0366A2FB052338
:100BA8003344BBF9146002FB04F405FB034406FB61
:100BB80001FEA2FB0523F717234400FB07EE540EA2
:100BC800A6FB0067774444EAC3144FEAD6480019E5
:100BD8004FEA636548EA473869414FEAE74918EB45
:100BE8000008BBF9124049EB01094FEA182646EA0A
:100BF800096620013618069B0BB1360A1E60BAF149
:100C0800000F02D0079BCAF8003009B0BDE8F08F8A
:100C180054410020C01E0020704700BF704700BF2D
:100C28004FF40063838270474FF4006383827047F8
:100C380050F8043C012280F84520103803B11847C9
:100C4800704700BF70B5044682B01430E56D0623C6
:100C58006A464321A847B0B19DF804009DF800609A
:100C68009DF801109DF802509DF803209DF805306D
:100C780041EA062143EA002342EA0522A187E287E6
:100C8800A4F84030012002B070BD00BF70B5044622
:100C980082B00830656A06236A463B21A847A8B196
:100CA8009DF804009DF800609DF801109DF8025021
:100CB8009DF803209DF8053041EA062143EA002308
:100CC80042EA0522E18222836383012002B070BDDB
:100CD80010B490E80600047B40690223A3404B60EF
:100CE80013685DF8044B4FF6FE710B401360FFF775
:100CF80081BB00BF70B40468037B2268022101FA3B
:100D080003F31A4213D042690A49582000FB021221
:100D18004FF6FE7650685289C568006829683140E8
:100D28002960C168D24392B20A40C260636070BC55
:100D3800704700BF3845002030B4094B1C7864B1B7
:100D4800084B002503EBC4041A6899885562D068DB
:100D580008330143A342D160F6D130BC704700BFCD
:100D6800F8470020FC47002010B40268047B116893
:100D78000223A340194209D00649406800240C7098
:100D880001684FF6FE742140016053605DF8044B22
:100D9800704700BFDF42002008B525F06BF8024B12
:100DA800024ADA60FEE700BF00ED00E00400FA0541
:100DB800024A034B127819782EF0DAB9181F00206E
:100DC800191F002000232622036002702722827048
:100DD8000122436002718371704770B544880646EA
:100DE8000D46C4F30B0422460021284634F0D1F9FD
:100DF80033690A4A934209D3094A934206D22246E2
:100E080028461946BDE8704031F0F8BE23B12146A6
:100E18002846BDE87040184770BD00BF50BA0308A7
:100E28003DBB03082DE9F0470569C3681D4028D07C
:100E38000F4606464FF000484FF00009B5FA85F313
:100E480028FA03F2D2431B3B32611540042B16D813
:100E5800DFE803F03129211903007B6A002B32D027
:100E680003F1FF3A1FFA8AFAC7F824903C6A34B1B2
:100E780023682046514698476468002CF8D1002D15
:100E8800DCD1BDE8F0873868716B036889B2984790
:100E9800002DD3D1F5E77868B16B036889B298471C
:100EA800002DCBD1EDE7B868F16B036889B298479C
:100EB800002DC3D1E5E7F868316C036889B298471B
:100EC800002DBBD1DDE7F36A1FFA83FACEE700BF36
:100ED80030B50446C06C61710368A26823F0010351
:100EE800036087B0A379009213F004023DD04FF459
:100EF800805213F00203019244D102934FF48063AD
:100F08000022039311F00103059237D104930823BB
:100F18008D07694648BF04932BF01EFB6079E36C8C
:100F2800A17900F00202002A15BF4FF440324FF4B5
:100F380080324FF40034002410F0010F586808BFC5
:100F48002246CC074CBF024320EA02025A609A6844
:100F580009074CBF42F0080222F008029A601A689A
:100F680042F001021A6007B030BD13F0020301928B
:100F78000BD04FF4005513460295C1E704230493A0
:100F88000C23C5E74FF40053B7E70293B8E700BF57
:100F980010B50446C06CA160036823F00103036028
:100FA800A37986B013F00402009141D04FF4805227
:100FB80013F00203019244D102934FF480636279E3
:100FC8000393D1074FF000030493059345BF04230F
:100FD800049308230C236946920748BF04932BF017
:100FE800BBFA6079E36CA17900F00202002A15BF10
:100FF8004FF440324FF480324FF40034002410F0A4
:10100800010F586808BF2246CC074CBF024320EAAC
:1010180002025A609A6809074CBF42F0080222F09F
:1010280008029A601A6842F001021A6006B010BD00
:1010380013F00203019207D04FF4005113460291B6
:10104800BDE74FF40053B7E70293B8E72DE9F34142
:10105800056906460F467DBBD0F80080C8F30A0331
:1010680023B30023D6F80080019320F0C3FD0428A1
:1010780019D1224C236943F001032361BBB2A8F8BC
:10108800003020F0B7FD04282ED108F102030193A7
:10109800019B3F0C1F8020F0ADFD2369042823F03D
:1010A8000103236125D06FF0010505E020F0A2FDC2
:1010B800042805D04FF0FF35284602B0BDE8F0817E
:1010C8000E4C236943F002032361C4F8148023699A
:1010D80043F04003236120F08DFD2369042823F0A9
:1010E80002032361BDD0E5E7236923F001032361EF
:1010F800D9E7336804333360DEE700BF00200240DD
:10110800F8B504460D468E180027B54201D120696E
:10111800F8BDE368591CE160234415F8012B1A72E5
:101128000429F2D1A1682046FFF790FFE76020610B
:10113800EBE700BF00B5002183B00A2022F0BAFD1A
:101148000F210A2022F0B6FD01AA0321102022F067
:10115800D5FD9DF90430DFED277ADFED275A06EE3D
:10116800103A9DF9053006EE903A9DF9063007EEE3
:10117800103AB8EEC66AF8EEE66AB8EEC77A76EEC6
:10118800E76A36EE676A37EE677AF7EE007AB0EE0E
:10119800675AA6EE255A194B0021B0EE456AB0EE03
:1011A800675AA6EEA55A0A20E7EE257AF3EE0E5AFC
:1011B80026EE256A25EE257A67EEA57A83ED006A84
:1011C80083ED017AC3ED027A22F074FD0DF103027A
:1011D8000121022022F092FD0DF1030201210920D4
:1011E80022F08CFD01210A2022F064FD012003B0C9
:1011F8005DF804FB000000430000803B0000002075
:1012080070B582B004466946143022F0FFFCB0B1D4
:101218009DF805009DF801609DF802109DF80350A7
:101228009DF804209DF8063041EA062143EA002390
:1012380042EA0522A187E287A4F84030012002B0E3
:1012480070BD00BF022828BF022010B4084C094B0B
:10125800207000EB8002C0EBC20207495DF8044B26
:10126800013003EB4203C0B20B6018F0BDB900BFF8
:101278002C4300208E5D00202843002038B5434BC6
:101288005A899989914224BF00225A81198ADA8998
:10129800914224BF0022DA81DA788AB3072A2FD054
:1012A8003B493C4D91F85700012400210A282C7035
:1012B8009C70D9713DD00C2865D0DFED377A8ABB98
:1012C800364C9FED370AA278002918BFF0EE407A15
:1012D800062A04D8334901EB820191ED050A2179E8
:1012E80059B3013A032A4DD8F7EE007A87EE800AFF
:1012F80031F08EFE2388984228BF1846208038BDDA
:10130800D97921B198780428B8BF0420987020486A
:1013180090F857000A280CD00C28CED1DFED227A9D
:10132800002ACDD0072ACBD00A282CD1DFED1F7A8E
:10133800C6E70A20DFED1E7AC1E79B78154A07EE5B
:10134800103A1178B8EEC77A27EE277A07EE901A86
:10135800F8EEE77A67EE877AB4EEE70AF1EE10FA6C
:1013680010DDC0EE077AFDEEE77A17EE903A102B03
:10137800A8BF1023012BB8BF0123DBB28B4238BFB3
:101388000B46137038BDDFED0B7A99E74048002013
:10139800EC630020F05400206F1203391045002040
:1013A8006F120338045303080AD7A3390F506E3A53
:1013B8005304E9386F12833A38B50D4C0D4DAC42E1
:1013C80006D2616820461434FFF707FDAC42F8D313
:1013D800094B0A4C0A4A0B4D1D6000230A49237029
:1013E8001370537009480860BDE838402DF0D2BC2E
:1013F800F0B5030850BA0308284300200835002038
:101408002C4300208E5D0020F8870020965E002087
:10141800F0B50C292BD8DFE801F06F2A2A2A4C2ACC
:101428002A2A2B2A2A2A0700046AB2F80CE097888D
:101438001668674D24F480540462036A4468C169DD
:1014480023F4005343EA0E3321F4E641A84243EA69
:10145800073341EA062100F0B58005F50065A8428A
:1014680000F0B08092684460C16102640362F0BD1C
:10147800046A96899588D2F800E0554F24F4807460
:101488000462036A4468C16923F4007343EA0623CB
:1014980021F07301B84243EA052341EA0E017ED0E8
:1014A8004C4DA8427BD092684460C161C26303621C
:1014B800F0BD046A96899588D2F800E0444F24F07C
:1014C80010040462036A4468816923F0200321F050
:1014D800807143EA061321F4E641B84243EA051352
:1014E80041EA0E2148D03B4DA84245D0926844605D
:1014F800816182630362F0BD046A9389B2F804E0F3
:101508001768334E24F001040462056A446881694F
:1015180043EA0E0321F4803125F002059BB221F045
:101528007301B04243EA050341EA070114D0294D8B
:10153800A84211D005F54065A8420DD005F5806593
:10154800A84209D005F58065A84205D09268446094
:10155800816142630362F0BDD689158A578A23F0F8
:10156800080333433D43D68824F4407423F004032E
:10157800ADB233432C43E9E7D589178AD68823F0DF
:10158800800343EA051324F44064558A23F040039A
:1015980044EA870443EA061344EA8504A6E7D589A2
:1015A800178AD68823F4006343EA052324F44054B9
:1015B800558A23F4806344EA071443EA062344EA7D
:1015C800051470E7158A24F4804444EA851449E731
:1015D800002C0140003401402DE9F04FF022002199
:1015E80083B07848784CDFF80492784D784E794F7C
:1015F800DFF8FC8133F0CDFD77487849DFF8F4E176
:10160800DFF8F4C100221359834200F0C180B3F11E
:10161800804F00F0BF80AB4200F0C880B34200F0BA
:10162800C780BB4200F0C680734500F0C5806345A3
:1016380000F0C480434500F0C380DFF8C0A15345E3
:101648007ED00AF5806A534508BF092379D0143241
:10165800F02AD8D15C4C624D624E604F04F1F0081C
:1016680002E01434A04568D0A379002BF9D023797F
:101678004FEA131909F1FF39B9F1050F03F00F0308
:10168800EFD835F8190040FA03F2D207E9D54FF040
:10169800010A0AFA03F3013B184030F00FFF16F86D
:1016A80009305149184411EBC002DAD051F8300022
:1016B800DFF84CE1217A00F138439B0A1EF8033029
:1016C80003F01F0E5B09022B0AFA0EFA69D0032BEE
:1016D80062D0012B03D17B694AEA03037B619388BB
:1016E8000093B3FA83F3C3F11F039BB2DA0800EB4C
:1016F800820203F00703D2F820E09B004FF00F0CA2
:101708000CFA03FC2EEA0C0EC2F820E0D2F820E016
:1017180001FA03F343EA0E03136269460023022227
:1017280014348DF804208DF805308DF806308DF8C6
:1017380007302AF0C9FCA04596D103B0BDE8F08F68
:10174800082309EBC3034FF0010B93F834A00AF008
:101758001F034FEA5A1ABAF1020F0BFA03F30BD020
:10176800BAF1030F0ED0DA457FF471AFD1F814A0A7
:1017780043EA0A034B616AE7D1F818A043EA0A036F
:101788008B6164E7D1F81CA043EA0A03CB615EE7EA
:101798000023D6E70123D4E7FB694AEA0303FB6188
:1017A8009DE7BB694AEA0303BB6198E70223C8E7E0
:1017B8000323C6E70423C4E70523C2E70623C0E7DB
:1017C8000723BEE7384B00200874030800040040D4
:1017D8000008004000100040002C014000100240AA
:1017E80028700308347003082C50002004530308A1
:1017F8000040014000140040003401400044014012
:1018080000740308002867D003682DE9F04F03F13E
:1018180038445C4EA40A0125345D04F01F066409AF
:10182800022C05FA06F558D0032C00F0A580012CEF
:1018380058D08088B0FA80F4C4F11F04A4B2E50837
:1018480003EB850504F007042E6AA4000F27A740C0
:1018580026EA07062E622E6A01F00307A2407C1EC4
:101868003243012CC1F3810CC1F300182A62C1F381
:1018780041113CD9C60700F18980850700F19580A0
:10188800440700F1A380020700F1B180C60600F109
:10189800BF80850600F1CD80440600F1DB8002069A
:1018A80000F1E980C60500F1F780850500F10581A2
:1018B800440500F11381020500F12181C60400F1FD
:1018C8002F81850400F13D81440400F14B8102041D
:1018D80000F15981BDE8F08F70472B4CA66935435C
:1018E800A561A6E7284C666935436561A1E7002430
:1018F80022464FF0010E4FF0030904E00132102A8E
:1019080004F10204E6D00EFA02F636EA0005F5D133
:10191800D3F808A009FA04F5ED430AEA050AC3F862
:1019280008A0D3F808B00CFA04FA4AEA0B0AC3F87C
:1019380008A0B3F804A01FFA8AFA2AEA06069E80CD
:10194800B3F804A008FA02F646EA0A06B6B29E8080
:101958001E682E401E60D3F800A007FA04F646EA77
:101968000A061E60D3F80CA001FA04F605EA0A0A72
:1019780046EA0A05DD60C1E7034CE6693543E561DF
:1019880057E700BF00740308001002401A6822F0ED
:1019980003021A601A683A431A60DA6822F00302EE
:1019A8000A438507DA607FF56BAF1A6822F00C02EC
:1019B8001A601A6842EA87021A60DA6822F00C0292
:1019C80042EA81024407DA607FF55DAF1A6822F0C7
:1019D80030021A601A6842EA07121A60DA6822F0BE
:1019E800300242EA0112DA6002077FF54FAF1A6847
:1019F80022F0C0021A601A6842EA87121A60DA688E
:101A080022F0C00242EA8112C606DA607FF541AFD1
:101A18001A6822F440721A601A6842EA07221A60A9
:101A2800DA6822F4407242EA01228506DA607FF51C
:101A380033AF1A6822F440621A601A6842EA8722B1
:101A48001A60DA6822F4406242EA81224406DA60C7
:101A58007FF525AF1A6822F440521A601A6842EAE4
:101A680007321A60DA6822F4405242EA0132DA6038
:101A780002067FF517AF1A6822F440421A601A6806
:101A880042EA87321A60DA6822F4404242EA813236
:101A9800C605DA607FF509AF1A6822F440321A6089
:101AA8001A6842EA07421A60DA6822F4403242EAC7
:101AB80001428505DA607FF5FBAE1A6822F4402200
:101AC8001A601A6842EA87421A60DA6822F44022E9
:101AD80042EA81424405DA607FF5EDAE1A6822F4E5
:101AE80040121A601A6842EA07521A60DA6822F449
:101AF800401242EA0152DA6002057FF5DFAE1A6849
:101B080022F440021A601A6842EA87521A60DA68B8
:101B180022F4400242EA8152C604DA607FF5D1AE6F
:101B28001A6822F040721A601A6842EA07621A605C
:101B3800DA6822F0407242EA01628504DA607FF5D1
:101B4800C3AE1A6822F040621A601A6842EA8762D5
:101B58001A60DA6822F0406242EA81624404DA607C
:101B68007FF5B5AE1A6822F040521A601A6842EA48
:101B780007721A60DA6822F0405242EA0172DA60AB
:101B880002047FF5A7AE1A6822F040421A601A686C
:101B980042EA87771F60DA6822F0404242EA8171A0
:101BA800D960BDE8F08F00BF03682DE9F04F03F15D
:101BB8003845644EAD0A0124755D05F01F066D09B0
:101BC800022D04FA06F400F0A280032D00F0A48090
:101BD800012D52D08088B0FA80F4C4F11F04A4B259
:101BE800E50803EB850504F007042E6AA4000F2717
:101BF800A74026EA07062E622E6A01F0030702FABA
:101C080004F47A1E3443012AC1F3810CC1F300188D
:101C18002C62C1F3411135D9C60700F197808507B9
:101C280000F1A380440700F1B180020700F1BF80F2
:101C3800C60600F1CD80850600F1DB80440600F180
:101C4800E980020600F1F780C60500F105818505E7
:101C580000F11381440500F12181020500F12F8173
:101C6800C60400F13D81850400F14B81440400F174
:101C78005981020455D4BDE8F08F334D6E69344361
:101C88006C61A7E7002422464FF0010E4FF00309CC
:101C980004E00132102A04F10204ECD00EFA02F634
:101CA80036EA0005F5D1D3F808A009FA04F5ED43A2
:101CB8000AEA050AC3F808A0D3F808B00CFA04FA2F
:101CC8004AEA0B0AC3F808A0B3F804A01FFA8AFA74
:101CD8002AEA06069E80B3F804A008FA02F646EA45
:101CE8000A06B6B29E801E682E401E60D3F800A079
:101CF80007FA04F646EA0A061E60D3F80CA001FAB1
:101D080004F605EA0A0A46EA0A05DD60C1E70E4D4F
:101D1800AE693443AC615DE70B4DEE693443EC6169
:101D280058E71A6822F040421A601A6842EA877730
:101D38001F60DA6822F0404242EA8171D960BDE84A
:101D4800F08F00BF00740308001002401A6822F0E8
:101D580003021A601A683A431A60DA6822F003022A
:101D68000A438507DA607FF55DAF1A6822F00C0236
:101D78001A601A6842EA87021A60DA6822F00C02CE
:101D880042EA81024407DA607FF54FAF1A6822F011
:101D980030021A601A6842EA07121A60DA6822F0FA
:101DA800300242EA0112DA6002077FF541AF1A6891
:101DB80022F0C0021A601A6842EA87121A60DA68CA
:101DC80022F0C00242EA8112C606DA607FF533AF1C
:101DD8001A6822F440721A601A6842EA07221A60E6
:101DE800DA6822F4407242EA01228506DA607FF559
:101DF80025AF1A6822F440621A601A6842EA8722FC
:101E08001A60DA6822F4406242EA81224406DA6003
:101E18007FF517AF1A6822F440521A601A6842EA2E
:101E280007321A60DA6822F4405242EA0132DA6074
:101E380002067FF509AF1A6822F440421A601A6850
:101E480042EA87321A60DA6822F4404242EA813272
:101E5800C605DA607FF5FBAE1A6822F440321A60D4
:101E68001A6842EA07421A60DA6822F4403242EA03
:101E780001428505DA607FF5EDAE1A6822F440224A
:101E88001A601A6842EA87421A60DA6822F4402225
:101E980042EA81424405DA607FF5DFAE1A6822F42F
:101EA80040121A601A6842EA07521A60DA6822F485
:101EB800401242EA0152DA6002057FF5D1AE1A6893
:101EC80022F440021A601A6842EA87521A60DA68F5
:101ED80022F4400242EA8152C604DA607FF5C3AEBA
:101EE8001A6822F040721A601A6842EA07621A6099
:101EF800DA6822F0407242EA01628504DA607FF50E
:101F0800B5AE1A6822F040621A601A6842EA87621F
:101F18001A60DA6822F0406242EA81624404DA60B8
:101F28007FF5A7AE1A6822F040521A601A6842EA92
:101F380007721A60DA6822F0405242EA0172DA60E7
:101F480097E600BF10B50409013C052C17D80D4BC6
:101F580033F8142000F00F0042FA00F313F00103E5
:101F68000DD0012303FA00F00138104030F0A6FA32
:101F7800054A064B125D104403EBC00010BD00205B
:101F880010BD00BF28700308347003082C500020CF
:101F980001490248FEF746BFD84B002000400140E7
:101FA80001490248FEF73EBFB04B00200034014013
:101FB80001490248FEF736BFB04B0020003401400B
:101FC80001490248FEF72EBF884B0020000400405C
:101FD80002494FF08040FEF725BF00BF604B00204C
:101FE80010B5064C06482146FEF71CFF04F1C8014F
:101FF8000448BDE81040FEF715BF00BF384B00206D
:10200800002C01400044014001490248FEF70ABF84
:10201800384B0020002C01402DE9F04104684E4D5A
:10202800A30AAB427AD00AD94C4DAB425FD00135F6
:10203800AB4277D0043DAB425DD0BDE8F081B3F54B
:10204800801F67D04A3DAB4259D14FF0700E02262F
:1020580047794FEA970C002968D0B0006346851984
:102068000227D4F80C809F400CEB4503BFB23C4DCF
:1020780003F1040C47EA080745F8231045F82C201B
:10208800E760EFF31181502282F31288821905EB81
:10209800C2021369002B34D013620433821905EB92
:1020A800C202576917B11F6053690433821905EBDF
:1020B800C202976917B11F6093690433821905EB4F
:1020C800C202D76917B11F60D36904330027CAB2A7
:1020D8001F6082F31188304405EBC000036A9BB986
:1020E800E3684FF6FE721340E360BDE8F0814FF0FD
:1020F800C00E0426ACE74FF0980E0326A8E7BDE80B
:10210800F08105EB0E03C9E7E36843F00103E360E0
:10211800BDE8F0814FF0480E012699E74FF0200EF8
:10212800002695E74FF0E80E052691E7BF08022341
:1021380006FA03F0BB40DB43E768094D9BB23B401E
:1021480087190CEB470CE3600CF1040345F82C10DD
:1021580045F8232095E700BF4B0010005000100001
:10216800384B002030B503685C4D18885C4CB4FBD4
:10217800F2F20139013AAB4294B283B089B282B229
:1021880066D05848834263D0B3F1804F60D0A0F541
:10219800983083425CD000F58060834258D0524822
:1021A80083425BD000F5806083427DD022F4407288
:1021B80000F58C3092B283421A80D9621C850ED009
:1021C800484A93420BD002F54062934207D002F589
:1021D8008062934203D002F58062934201D10022CB
:1021E8001A8601225A611A883C4992B242F00102C9
:1021F8008B421A8062D0B3F1804F61D03B4A934240
:1022080060D002F5806293425ED002F5006293428C
:102218005CD002F5806293425AD002F59032934224
:1022280058D002F54062934256D002F5806293423C
:102238001ED002F58062934208BF092219D002A875
:102248004FF0012340F8043D29F032FE03B030BDC1
:10225800254822F07002834292B2A3D101201A804D
:10226800D9621C8558611A8892B202431A80C5E760
:1022780008221F4B03EBC20301A893F835408DF8E1
:102288000440012300228DF805308DF807308DF8C1
:10229800062029F00DFE1B2CD8D1164B019301A85E
:1022A80029F006FE03B030BD01201A80D9621C85D2
:1022B80058611A8892B202431A809CE70022D8E734
:1022C8000122D6E70222D4E70322D2E70422D0E78C
:1022D8000522CEE70622CCE70722CAE7002C0140F8
:1022E80000A24A04003401400010004000040040ED
:1022F8000453030819010001204B98422DD0B0F176
:10230800804F2CD0A3F5943398422AD003F58063EC
:10231800984228D003F50063984226D003F58063DD
:10232800984224D003F59033984222D003F54063B5
:10233800984220D003F58063984207D003F5806364
:10234800984208BF092202D00020704708220C4B8F
:1023580003EBC20393F8340070470022F7E7012229
:10236800F5E70222F3E70322F1E70422EFE705226B
:10237800EDE70622EBE70722E9E700BF002C014062
:10238800045303082DE9F04F013085B0C3B203931D
:102398008E4D8F4F8F4C904E0A230293DFF8409258
:1023A80021F0CEF94FF4FA7A4FF0100C4FF47A700E
:1023B800D9F80430C3F30803002B40F0C880EFF3CA
:1023C8001183002B40F0C3802968A26800BF2B68E6
:1023D8009942F9D1D7F800E000FB0EF39B1AB3FB42
:1023E800FEF300FB01314FF0010E0191D9F80430E2
:1023F800C3F30803002B40F08E80EFF31183002B0A
:1024080040F089802B68A16800BF2A689342F9D1FF
:10241800D7F800B000FB0BF2521AB2FBFBF200FB3C
:102428000323019A9B1AB3F57A7FDFD3BAF1010A25
:10243800BED1039B002B40F0C4804FF47A7ADFF8BA
:10244800A09150464FF0100CD9F80430C3F308039C
:10245800002B40F09980EFF31183002B40F094801B
:102468002968A26800BF2B689942F9D1D7F800E023
:1024780000FB0EF39B1AB3FBFEF300FB01314FF098
:10248800010E0191D9F80430C3F308033BBBEFF305
:10249800118323BB2B68A16800BF2A689342F9D136
:1024A800D7F800B000FB0BF2521AB2FBFBF200FBAC
:1024B8000323019A9B1AB3F57A7FE3D3BAF1010A91
:1024C800C2D1029B013B02937FF468AF4349444B5E
:1024D8004448454A0860DA6005B0BDE8F08FEFF37C
:1024E80011888CF31288A1682368DB0344BFC6F8FF
:1024F80000E0A1682B6832685FFA88F888F31188D1
:10250800D7F800801A4400FB08F35B1AB3FBF8F312
:1025180000FB0233CDE7EFF311888CF31288A16832
:102528002368DB0344BFC6F800E0A1682B68326863
:102538005FFA88F888F31188D7F800801A4400FBFE
:1025480008F35B1AB3FBF8F300FB023369E7EFF318
:1025580011828CF31288D4F808E02368D90303D5D4
:1025680001233360D4F808E02B683168D2B282F3D3
:1025780011883A68194400FB02F3A3EB0E03B3FB7E
:10258800F2F300FB01312EE7EFF311828CF312888E
:10259800D4F808E02368D90303D501233360D4F8BD
:1025A80008E02B683168D2B282F311883A6819447E
:1025B80000FB02F3A3EB0E03B3FBF2F300FB0131C4
:1025C8005DE7184628F0E6F837E700BF68630020A3
:1025D8006C63002010E000E064630020FC9F002092
:1025E80000ED00E0EFBEADDE0400FA052DE9F04F86
:1025F800013085B0C3B203930B4602918B4C8C4ECD
:10260800002B00F099808B4D8B4FDFF8309221F032
:1026180097F84FF4FA7A4FF0100C4FF47A70D9F813
:102628000430C3F30803002B40F0DE80EFF311837E
:10263800002B40F0D9802968A26800BF2B68994216
:10264800F9D1D7F800E000FB0EF39B1AB3FBFEF3B9
:1026580000FB01314FF0010E0191D9F80430C3F3AA
:102668000803002B40F08780EFF31183002B40F024
:1026780082802B68A16800BF2A689342F9D1D7F8F5
:1026880000B000FB0BF2521AB2FBFBF200FB032373
:10269800019A9B1AB3F57A7FDFD3BAF1010ABED14A
:1026A800039B002B40F0BD804FF47A7ADFF88C91C1
:1026B80050464FF0100CD9F80430C3F30803002B30
:1026C80075D1EFF31183002B71D12968A26800BF7F
:1026D8002B689942F9D1D7F800E000FB0EF39B1A5A
:1026E800B3FBFEF300FB01314FF0010E0191D9F865
:1026F8000430C3F3080313BBEFF31183FBB92B6852
:10270800A16800BF2A689342F9D1D7F800B000FB4E
:102718000BF2521AB2FBFBF200FB0323019A9B1A3D
:10272800B3F57A7FE3D3BAF1010AC4D1029B013B26
:102738000293002B7FF467AF05B0BDE8F08FEFF38D
:1027480011888CF31288A1682368DB0344BFC6F89C
:1027580000E0A1682B6832685FFA88F888F311886E
:10276800D7F800801A4400FB08F35B1AB3FBF8F3B0
:1027780000FB0233D2E7EFF311888CF31288A168CB
:102788002368DB0344BFC6F800E0A1682B68326801
:102798005FFA88F888F31188D7F800801A4400FB9C
:1027A80008F35B1AB3FBF8F300FB023370E7EFF3AF
:1027B80011828CF31288D4F808E02368D90303D572
:1027C80001233360D4F808E02B683168D2B282F371
:1027D80011883A68194400FB02F3A3EB0E03B3FB1C
:1027E800F2F300FB01317FE7EFF311828CF31288DB
:1027F800D4F808E02368D90303D501233360D4F85B
:1028080008E02B683168D2B282F311883A6819441B
:1028180000FB02F3A3EB0E03B3FBF2F300FB013161
:1028280018E7184627F0B6FF3EE700BF10E000E0C3
:1028380064630020686300206C63002000ED00E002
:10284800204B5B68C3F3080330B4BBB9EFF31183C3
:10285800A3B91D4B1D4C1868A16800BF1A689042A7
:10286800F9D11B4B1C684FF47A7202FB04F3591A16
:10287800B1FBF4F130BC02FB00107047EFF311829A
:10288800102383F3128811498C680B6813F4803F76
:10289800104B02D0012018608C680B49D2B20D6829
:1028A800186882F311880A4B19684FF47A72284421
:1028B80002FB01F31B1B30BCB3FBF1F302FB00303E
:1028C800704700BF00ED00E06863002010E000E002
:1028D8006C630020646300202DE9F84F8046FFF701
:1028E800AFFF254E2549DFF8A0E0254A254D84464F
:1028F80010274FF47A740120DEF80430C3F308037C
:10290800D3B9EFF31183BBB90B68D2F808A000BFA5
:10291800D1F800904B45F7D1D6F800B004FB0BF97D
:10292800A9EB0A09B9FBFBF904FB0393A3EB0C031E
:102938004345E1D3BDE8F88FEFF3118A87F3128896
:10294800D2F808B01368DB0344BF2860D2F808B097
:102958000B68D5F800905FFA8AFA8AF31188D6F8DE
:1029680000A0994404FB0AF3A3EB0B03B3FBFAF3AF
:1029780004FB0933DAE700BF6C63002068630020BA
:1029880010E000E06463002000ED00E008B5FFF708
:1029980057FF044B5B68C01AC0F5FA5020EAE07094
:1029A80008BD00BF304B00202DE9F04FDFF830C1E3
:1029B800474A4849484E494D8046102718F1FF3884
:1029C800C0F08480DCF80430C3F30803002B5CD12A
:1029D800EFF31183002B58D10B68946800BF086887
:1029E8008342F9D1D6F800904FF47A7000FB09FEC3
:1029F800AEEB040EBEFBF9FE00FB03EEDCF8043080
:102A0800C3F308034FF47A740120FBB9EFF3118381
:102A1800E3B90B68D2F808A000BFD1F800904B4585
:102A2800F7D1D6F800B004FB0BF9A9EB0A09B9FBFA
:102A3800FBF904FB0393A3EB0E03B3F57A7FBDD236
:102A4800DCF80430C3F30803002BDFD0EFF3118A5E
:102A580087F31288D2F808B01368DB0344BF2860F4
:102A6800D2F808B00B68D5F800905FFA8AFA8AF3B2
:102A78001188D6F800A0994404FB0AF3A3EB0B03D2
:102A8800B3FBFAF304FB0933D5E7EFF3118487F3BB
:102A98001288D2F808901368D80303D501232B6055
:102AA800D2F808900B682868E4B284F31188D6F845
:102AB80000A04FF47A7400EB030E04FB0AF3A3EBB7
:102AC8000903B3FBFAF304FB0E3E97E7BDE8F08F6A
:102AD80010E000E0686300206C630020646300205D
:102AE80000ED00E030B4EFF31183102282F3128876
:102AF8000649074C0A680748013200250A60256024
:102B0800DBB2026883F3118830BC70476863002029
:102B18006463002010E000E01D4B70B59C68E36C16
:102B2800226BDD69C2B1636B2BB12B0702D5E36C55
:102B380008221A6270BD2A06F7D5A26A616A8A421B
:102B48001FD0511CA069A162825C2069E66C814299
:102B58003285EAD3A362E8E7A906E4D5E26A1AB1A6
:102B6800988C80B29047DEE7E1699B8C6069DBB2A4
:102B78004E1CE6614354E169E368994228BFE2616B
:102B8800D1E7E26C136823F080031360CDE700BF40
:102B9800C02D00201D4B70B55C68E36C226BDD69AD
:102BA800C2B1636B2BB12B0702D5E36C08221A6202
:102BB80070BD2A06F7D5A26A616A8A421FD0511CE5
:102BC800A069A162825C2069E66C81423285EAD301
:102BD800A362E8E7A906E4D5E26A1AB1988C80B244
:102BE8009047DEE7E1699B8C6069DBB24E1CE661C9
:102BF8004354E169E368994228BFE261D1E7E26C96
:102C0800136823F080031360CDE700BFC02D0020B8
:102C18001D4B70B51C68E36C226BDD69C2B1636B38
:102C28002BB12B0702D5E36C08221A6270BD2A0665
:102C3800F7D5A26A616A8A421FD0511CA069A162B5
:102C4800825C2069E66C81423285EAD3A362E8E7B8
:102C5800A906E4D5E26A1AB1988C80B29047DEE7FB
:102C6800E1699B8C6069DBB24E1CE6614354E16903
:102C7800E368994228BFE261D1E7E26C136823F068
:102C880080031360CDE700BFC02D002003685B6A96
:102C980003B11847704700BF03681B6A03B11847A0
:102CA800704700BF03682DE9F041DF691FB13B465B
:102CB800BDE8F0411847002A164611DD04460D46C6
:102CC8000E4400E023689B68204698470028F9D006
:102CD800236815F8011B1B6820469847AE42F1D1BE
:102CE800BDE8F08103689B69184700BF0368DB688B
:102CF800184700BF03689B68184700BF03685B68F4
:102D0800184700BF03681B68184700BF014B1868C5
:102D1800F8E700BF04200020054B53F8203033B1FA
:102D28001A689B88918A0B4218BF1B0493617047ED
:102D380074660020036803F138422DE9F04F920AC7
:102D4800584DAA5C02F01F0552090124022A04FA10
:102D580005F400F08C80032A00F08E80012A3CD014
:102D680001F003077A1E012AC1F3810CC1F3001890
:102D78008088C1F3411135D9C60700F197808507CE
:102D880000F1A380440700F1B180020700F1BF8081
:102D9800C60600F1CD80850600F1DB80440600F10F
:102DA800E980020600F1F780C60500F10581850576
:102DB80000F11381440500F12181020500F12F8102
:102DC800C60400F13D81850400F14B81440400F103
:102DD8005981020455D4BDE8F08F334A55692C4314
:102DE8005461BDE7002422464FF0010E4FF003095D
:102DF80004E00132102A04F10204ECD00EFA02F6C3
:102E080036EA0005F5D1D3F808A009FA04F5ED4330
:102E18000AEA050AC3F808A0D3F808B00CFA04FABD
:102E28004AEA0B0AC3F808A0B3F804A01FFA8AFA02
:102E38002AEA06069E80B3F804A008FA02F646EAD3
:102E48000A06B6B29E801E682E401E60D3F800A007
:102E580007FA04F646EA0A061E60D3F80CA001FA3F
:102E680004F605EA0A0A46EA0A05DD60C1E70E4AE1
:102E780095692C43946173E70B4AD5692C43D46157
:102E88006EE71A6822F040421A601A6842EA8777A9
:102E98001F60DA6822F0404242EA8171D960BDE8D9
:102EA800F08F00BF00740308001002401A6822F077
:102EB80003021A601A683A431A60DA6822F00302B9
:102EC8000A438507DA607FF55DAF1A6822F00C02C5
:102ED8001A601A6842EA87021A60DA6822F00C025D
:102EE80042EA81024407DA607FF54FAF1A6822F0A0
:102EF80030021A601A6842EA07121A60DA6822F089
:102F0800300242EA0112DA6002077FF541AF1A681F
:102F180022F0C0021A601A6842EA87121A60DA6858
:102F280022F0C00242EA8112C606DA607FF533AFAA
:102F38001A6822F440721A601A6842EA07221A6074
:102F4800DA6822F4407242EA01228506DA607FF5E7
:102F580025AF1A6822F440621A601A6842EA87228A
:102F68001A60DA6822F4406242EA81224406DA6092
:102F78007FF517AF1A6822F440521A601A6842EABD
:102F880007321A60DA6822F4405242EA0132DA6003
:102F980002067FF509AF1A6822F440421A601A68DF
:102FA80042EA87321A60DA6822F4404242EA813201
:102FB800C605DA607FF5FBAE1A6822F440321A6063
:102FC8001A6842EA07421A60DA6822F4403242EA92
:102FD80001428505DA607FF5EDAE1A6822F44022D9
:102FE8001A601A6842EA87421A60DA6822F44022B4
:102FF80042EA81424405DA607FF5DFAE1A6822F4BE
:1030080040121A601A6842EA07521A60DA6822F413
:10301800401242EA0152DA6002057FF5D1AE1A6821
:1030280022F440021A601A6842EA87521A60DA6883
:1030380022F4400242EA8152C604DA607FF5C3AE48
:103048001A6822F040721A601A6842EA07621A6027
:10305800DA6822F0407242EA01628504DA607FF59C
:10306800B5AE1A6822F040621A601A6842EA8762AE
:103078001A60DA6822F0406242EA81624404DA6047
:103088007FF5A7AE1A6822F040521A601A6842EA21
:1030980007721A60DA6822F0405242EA0172DA6076
:1030A80097E600BF2DE9F04F4A484B4B4B4C4FF089
:1030B80090414FF0010A4FF002094FF004084FF019
:1030C800080C4FF0100E20274026802530F8022BE0
:1030D80012F0010F03D01960A3F804A0083312F00E
:1030E800020F03D01960A3F80490083312F0040FFC
:1030F80003D01960A3F80480083312F0080F03D036
:103108001960A3F804C0083312F0100F03D0196037
:10311800A3F804E0083312F0200F02D019609F8052
:10312800083312F0400F02D019609E80083312F065
:10313800800F02D019609D80083312F4807F05D07B
:103148004FF4807B1960A3F804B0083312F4007FB1
:1031580005D04FF4007B1960A3F804B0083312F4CB
:10316800806F05D04FF4806B1960A3F804B0083362
:1031780012F4006F05D04FF4006B1960A3F804B087
:10318800083312F4805F05D04FF4805B1960A3F810
:1031980004B0083312F4005F05D04FF4005B1960E7
:1031A800A3F804B0083312F4804F05D04FF4804BD5
:1031B8001960A3F804B00833D20B04D04FF40042CE
:1031C80019609A80083301F58061A1427FF47EAFCF
:1031D800BDE8F08F287003082C5000200018004824
:1031E800002852D0036803F138422DE9F04F920AC3
:1031F800504DAA5C02F01F0552090124022A04FA64
:1032080005F443D0032A00F09080012A43D001F04E
:1032180003077A1E012AC1F3810CC1F300188088C4
:10322800C1F341113CD9C60700F18880850700F138
:103238009480440700F1A280020700F1B080C6061E
:1032480000F1BE80850600F1CC80440600F1DA80EA
:10325800020600F1E880C60500F1F680850500F158
:103268000481440500F11281020500F12081C604A1
:1032780000F12E81850400F13C81440400F14A816B
:10328800020400F15881BDE8F08F70472A4A956919
:103298002C439461BBE7284A55692C435461B6E72F
:1032A800002422464FF0010E4FF0030904E00132DA
:1032B800102A04F10204E6D00EFA02F636EA0005F6
:1032C800F5D1D3F808A009FA04F5ED430AEA050A8E
:1032D800C3F808A0D3F808B00CFA04FA4AEA0B0AB3
:1032E800C3F808A0B3F804A01FFA8AFA2AEA060667
:1032F8009E80B3F804A008FA02F646EA0A06B6B2B7
:103308009E801E682E401E60D3F800A007FA04F6BF
:1033180046EA0A061E60D3F80CA001FA04F605EA8C
:103328000A0A46EA0A05DD60C1E7034AD5692C4363
:10333800D4616CE700740308001002401A6822F098
:1033480003021A601A683A431A60DA6822F0030224
:103358000A438507DA607FF56CAF1A6822F00C0221
:103368001A601A6842EA87021A60DA6822F00C02C8
:1033780042EA81024407DA607FF55EAF1A6822F0FC
:1033880030021A601A6842EA07121A60DA6822F0F4
:10339800300242EA0112DA6002077FF550AF1A687C
:1033A80022F0C0021A601A6842EA87121A60DA68C4
:1033B80022F0C00242EA8112C606DA607FF542AF07
:1033C8001A6822F440721A601A6842EA07221A60E0
:1033D800DA6822F4407242EA01228506DA607FF553
:1033E80034AF1A6822F440621A601A6842EA8722E7
:1033F8001A60DA6822F4406242EA81224406DA60FE
:103408007FF526AF1A6822F440521A601A6842EA19
:1034180007321A60DA6822F4405242EA0132DA606E
:1034280002067FF518AF1A6822F440421A601A683B
:1034380042EA87321A60DA6822F4404242EA81326C
:10344800C605DA607FF50AAF1A6822F440321A60BE
:103458001A6842EA07421A60DA6822F4403242EAFD
:1034680001428505DA607FF5FCAE1A6822F4402235
:103478001A601A6842EA87421A60DA6822F440221F
:1034880042EA81424405DA607FF5EEAE1A6822F41A
:1034980040121A601A6842EA07521A60DA6822F47F
:1034A800401242EA0152DA6002057FF5E0AE1A687E
:1034B80022F440021A601A6842EA87521A60DA68EF
:1034C80022F4400242EA8152C604DA607FF5D2AEA5
:1034D8001A6822F040721A601A6842EA07621A6093
:1034E800DA6822F0407242EA01628504DA607FF508
:1034F800C4AE1A6822F040621A601A6842EA87620B
:103508001A60DA6822F0406242EA81624404DA60B2
:103518007FF5B6AE1A6822F040521A601A6842EA7D
:1035280007721A60DA6822F0405242EA0172DA60E1
:1035380002047FF5A8AE1A6822F040421A601A68A1
:1035480042EA87771F60DA6822F0404242EA8171D6
:10355800D960BDE8F08F00BF10B1036882881A8572
:10356800704700BF10B1036882889A61704700BF36
:1035780038B100298388026814BF002110218B40CC
:10358800936170470E4B1B8801463BB90D4B0E4AA1
:103598001B7810680BB981F00101E9E70B4B5A69F8
:1035A8001AB118B91A68106058747047084A186830
:1035B8001188084A92FBF1F20121026059747047A0
:1035C80080660020826600208466002088660020CD
:1035D800A066002020A1070010B40A4B0A4A1C78F4
:1035E80001238340234052F8200029B9B3FA83F11C
:1035F80049095DF8044BBBE7191C18BF01215DF8A8
:10360800044BB5E770660020746600201C4C08B5B2
:1036180001210220FFF7E0FF237803F00502052AC5
:103628002AD003F00903092B08D000210120FFF755
:10363800D3FF00210846FFF7CFFFFEE7114A124BE0
:1036480011681A680B68114C4FF6FE7003400B6046
:103658001388206823F001031B041B0C138018B186
:10366800292200238271C37102224E21FEF7CAF873
:103678002068FFF771FFD8E722F08EFC2378D0E7A7
:10368800BC2D0020BC2E0020C02E0020D02E0020F3
:1036980030B1036882881B8A1A4214BF01200020B7
:1036A800704700BF38B5044690F8590000285AD131
:1036B80004F11405236E80226B2128469847642064
:1036C800FFF772F9236E072268212846984764207D
:1036D800FFF76AF9236E00226B2128469847642079
:1036E800FFF762F9236E01226B21284698470F20C5
:1036F800FFF75AF994F85320236E042A34BF18228E
:103708001A221B21284698470F20FFF74DF9236EF0
:1037180018221C21284698470F20FFF745F9236EE9
:1037280094F852201A21284698470F20FFF73CF9B1
:10373800236E94F854201921284698476420FFF7EF
:1037480033F9236E10223721284698470F20FFF7B8
:103758002BF92846236E0122382198470F20BDE80F
:103768003840FFF721B9FEF7EDFB0546FFF790FF5C
:10377800014600289CD1D5B12023E871AB712846B9
:10378800FFF72EFD2146104B41F8103F284620F048
:10379800DDF9AB88B3FA83F3C3F11F035A1C87D052
:1037A80001229A4009490B6813430B6080E72946B8
:1037B800FFF716FD2146044B41F8103F284620F03C
:1037C800C5F90122EEE700BF390C000800040140EA
:1037D80010B50446806926F0C9FF0120FFF77CF880
:1037E8002046FFF75FFF10226A2104F11400FCF75E
:1037F8001DFF6420FFF7D8F8A06926F0A5FF012077
:10380800BDE81040FFF768B82DE9F0410B4E346869
:1038180073691C400FD0DFF828800127B4FA84F3BD
:10382800C3F11F0307FA03F558F823000368984704
:10383800AC437561F2D1BDE8F08100BF00040140DE
:10384800E44A00202DE9F0410B4E346873691C40AE
:103858000FD0DFF828800127B4FA84F3C3F11F03DF
:1038680007FA03F558F8230003689847AC437561D5
:10387800F2D1BDE8F08100BF00040140E44A002015
:103888002DE9F0410B4E346873691C400FD0DFF806
:1038980028800127B4FA84F3C3F11F0307FA03F55C
:1038A80058F8230003689847AC437561F2D1BDE826
:1038B800F08100BF00040140E44A00202DE9F041F6
:1038C8000B4E346873691C400FD0DFF8288001273D
:1038D800B4FA84F3C3F11F0307FA03F558F8230079
:1038E80003689847AC437561F2D1BDE8F08100BF29
:1038F80000040140E44A00202DE9F0410B4E3468F1
:1039080073691C400FD0DFF828800127B4FA84F3CC
:10391800C3F11F0307FA03F558F823000368984713
:10392800AC437561F2D1BDE8F08100BF00040140ED
:10393800E44A00202DE9F0410B4E346873691C40BD
:103948000FD0DFF828800127B4FA84F3C3F11F03EE
:1039580007FA03F558F8230003689847AC437561E4
:10396800F2D1BDE8F08100BF00040140E44A002024
:103978002DE9F0410B4E346873691C400FD0DFF815
:1039880028800127B4FA84F3C3F11F0307FA03F56B
:1039980058F8230003689847AC437561F2D1BDE835
:1039A800F08100BF00040140E44A0020084A0948A9
:1039B80008B5936943F0010393610021402231F077
:1039C800E8FB054B4FF0FF321A60C3F8032008BD2F
:1039D80000100240E44A0020244B00202DE9F04169
:1039E800044618460D46164698462EF04DF82768A8
:1039F800E6722844A07229467D694346324620462D
:103A0800AC46BDE8F0416047036810B504461B6842
:103A18009847236820469B689847A37B0133A37384
:103A280010BD00BF10B5036804469B689847FF2384
:103A380001226373227310BD08B5FEF783FA40B103
:103A48002C2282710022C2712021BDE80840FFF7B4
:103A5800C7BB08BDF0B484894FF6FF764FF47A747B
:103A68003BB3002937D00F78013101E0B44219D0B7
:103A78000589013C15F00205A4B2F7D007734FF48D
:103A88007A7402E0BCB2B4420CD0058915F0010585
:103A980004F1FF37F6D0057BEDB20AB1157001329B
:103AA800013BDDE70D4B984207D0A3F578439842D8
:103AB80002D00120F0BC70470125094B03EB051526
:103AC8006B8901339BB26B81688980B2003018BF63
:103AD8000120F0BC7047FF27CAE700BF0030014053
:103AE800BC63002070B50546806810B10468808802
:103AF800208541F08001686840F2E93400E0F4B1C3
:103B08000689013C16F0020FA4B2F8D0017300F147
:103B18000C0640F2E93100E011B30489013914F0D0
:103B2800010F89B2F8D0317868680021FFF792FF59
:103B3800AB6813B11A689B889361012070BD114965
:103B4800884204D0A1F578418842EED101240E497B
:103B580001EB04146189013189B261816189E4E76B
:103B6800084CA04203D009498842DDD1012106480A
:103B780000EB01114889013080B2488149896868A1
:103B8800D3E700BF00300140BC630020003800408C
:103B980038B50B4C2378054653B90A4A6378106840
:103BA80049212A4600252570FFF79CFF012038BDD2
:103BB800FEF7ECFE0028F0D0FEF78EFEEDE700BF22
:103BC800304B00202C4B0020F0B54A4C257C012DB1
:103BD80083B013D028D3022D0DD1474B1B7806464E
:103BE800002B77D16846FFF7D3FF20B19DF8063048
:103BF80013F0030022D0002003B0F0BD3E4E33780E
:103C0800002B62D16846FFF7C3FF9DF8003008B16A
:103C1800DB0764D40023237433784BB100230133CA
:103C28000020237403B0F0BD334E3378002BF5D158
:103C38000121022020F08CF8237CF0E79DF801E0B8
:103C48009DF800109DF803709DF802209DF805501E
:103C58009DF80430207441EA0E2142EA072243EA23
:103C6800052309B212B21BB2494252425B422348B1
:103C780006EE901A07EE102A07EE903A90ED005AD9
:103C8800D0ED015A90ED026AF8EEE66AB8EEC77A0E
:103C9800F8EEE77A66EE856A27EE257A67EE867A89
:103CA800FDEEE66ABDEEC77AFDEEE77A16EE901AEB
:103CB80017EE102A17EE903A31807280B3800121F6
:103CC8000A201FF0F7FF03B0F0BDFEF75FFE0028E3
:103CD80098D090E7FEF75AFE00288CD182E7337817
:103CE80023B90721032020F033F8257C01352574FA
:103CF80081E700BFC01E0020304B002000000020DC
:103D0800F8B505015A4C5B4B625961199A4204EBAC
:103D1800050704BF01230B730646387A26F008F915
:103D28003B7A03F01F015B090122022B02FA01F220
:103D380078D0032B71D0012B67D06319013618791D
:103D4800FEF700F9F6B2074610B11223C671837167
:103D580063195879FEF7F6F810B11323C671837109
:103D680063199879FEF7EEF810B11423C6718371C0
:103D780066190E21F2793846FDF744FD7079FEF791
:103D8800E1F8F2790E21FDF73DFDB079FEF7DAF89A
:103D9800F2790E21FDF736FD6359374A934251D027
:103DA800344A934259D0354A934240D02C44227B1E
:103DB800002A2FD1012002249A8822F4805212046A
:103DC800120C9A80998889B241F4805199801A8896
:103DD80002F4415242F44572024322431A809A88FF
:103DE80022F470621204120C42F4E0629A809A8BF8
:103DF80022F400621204120C07219A8319821A888D
:103E080092B242F040021A80F8BD1D4B996A0A43EB
:103E18009A6292E700200446CEE7194B19690A43D3
:103E28001A618AE7164BD9680A43DA6085E702F512
:103E3800EA32116941F400411161116921F400412C
:103E48001161B3E702F56042D16841F48051D16055
:103E5800D16821F48051D160A8E702F5EC321169EC
:103E680041F480411161116921F4804111619DE79C
:103E7800BC6300200038004000300140003C004096
:103E880000100240427A02B9704710B50446036830
:103E9800406804F10A0198470023637210BD00BF0F
:103EA800437A5A1C0344D2B242729972037A9342FB
:103EB80000D802B9704710B504460368406804F199
:103EC8000A0198470023637210BD00BF30B40B4D40
:103ED800002305F1800101E0272B0CD011F81320F5
:103EE80082424FEA430403F10103F5D12C4494F8CC
:103EF800810030BC7047002030BC70470453030871
:103F0800064B07498B4202D30023184670471A888C
:103F1800C2F30B029042F8D01433F3E7F0B503086C
:103F280050BA0308024A136823EA00001060704779
:103F3800E05E00202DE9F047AD4FAE4E18F048FE88
:103F4800BE421ED2DFF83483DFF834934446258816
:103F580062197DB14A450DD2052D0BD93388618888
:103F6800C3F30B03994200F0F280144625886219C6
:103F7800002DEFD1716830461436FCF72EFFBE4293
:103F8800E4D39D4A1378A3F1170102290FD99B495D
:103F980011F83300002840F0FC80D800014449782B
:103FA80029B1974911F83330002B00F01A81954C4C
:103FB8006378022B84BF002363702378022B84BFAD
:103FC80000232370904B9A78042A00F0018132B9BB
:103FD8001A88B2F5F07F84BF4FF4F0721A808B49CB
:103FE8008B4A0B681A40002A00F0FE80DD0700F1BA
:103FF800EA80580400F1E2801A0700F1DA809B0495
:1040080000F1D080834D2B685A8C998C914224BF43
:1040180000225A84FDF732F91DF066FB10B97E487C
:1040280014F008F98020FFF77DFF4FF40070FFF7C8
:1040380079FF4FF40030FFF775FF4FF00070FFF77E
:1040480071FF4FF08060FFF76DFF6378022B06D891
:10405800724A734903EB430302EB83030B60237833
:10406800022B07D803EB83016E4AC3EBC10302EBB3
:1040780043032B602CF0E0FB002130226A4831F02A
:1040880088F8286821F0D8FB684B2E6803F15001A6
:1040980002E0043399427AD01A78002AF9D19C7840
:1040A800D8788442F5D26249624B91F804E06248BC
:1040B800624D5C6B624B2860C827642111FB0E714E
:1040C800DFF8C0E159605F4F30F8061C5E4DAEF86E
:1040D800001000219960D960196159619961D9610D
:1040E80083F8201083F821103A702E600CB118F074
:1040F8009FFB564B9FED565A1B88564A9FED566AB2
:10410800557E564C56495748086006EE903AF8EEE8
:10411800E66A938AC5EE265A07EE103AD38A127ECB
:10412800C4ED005A07EE903AB8EEC77A4E4BF8EE57
:10413800E77A1D725A7227EE067A67EE867ABDE82C
:10414800F04783ED017AC3ED007A18F029BD637951
:104158009B077FF40AAF716894F804A03046FCF717
:104168003CFE3388BAEB133F04D01436BE42FFF44A
:10417800EDAE06E773887068AA1FC3F30B039A4273
:1041880004F10601A8BF1A462EF038FDEDE701221A
:1041980089E7D8000C186468002C7FF4FFAE172458
:1041A8001470FBE63148FFF7BDFE4020FFF7BAFE6A
:1041B80028E72F48FFF7B6FE0B6820E72D48FFF7E2
:1041C800B1FE0B6818E72C48FFF7ACFE0B6810E748
:1041D8009A8AB2F57A7FBFF402AF4FF47A729A8264
:1041E800FDE618231370E2E643F001030B60FDE6D9
:1041F80050BA0308F0B50308D4400020F875030846
:10420800C47103082C43002010450020E05E002004
:104218000960000228430020284F0020965E0020F5
:10422800F88700208E5D0020CC1F0020D840002099
:1042380040560020483B0020423A002054200020ED
:1042480010870020E41C002000200020B42000205B
:10425800C0C9FB48C01E002017B7D138B8200020BD
:10426800085200203661023DE45100200940000256
:1042780001600002092000020860000202F0030841
:1042880000000408CC390020F8B5174D2B78A32B73
:1042980028D16B78BE2B25D1022229464FF6FF7014
:1042A800FCF78AFB114FAC1C22884AB1A618BE4203
:1042B80018D2052A16D92146FCF77EFB3446F3E7C7
:1042C80021460222FCF778FB0222A118FCF774FBB6
:1042D8000634074B641B1C8041F60F53C31A58421F
:1042E8005841F8BD0020F8BD00F00308000004089C
:1042F800F63300202DE9F04FDFF848914C4F8BB092
:104308000326A7EB09071822002104A830F041FF73
:10431800484BCDF8109005971A69120604D5464AFD
:104328005A6002F188325A6001228DF82420342222
:10433800DA60424B424C1B88ADF8003002226946D5
:1043480004A8FCF7DDFE022269464FF6FF70FCF771
:1043580033FBDFF8F4A080464FF0000B544536D30A
:104368000AAC002524F8245D0222214604A8FCF7A3
:10437800C7FE022221464046FCF71EFB40BAC04356
:10438800ADF80800022202A904A8FCF7B9FE0798B4
:1043980060B106ABC0F104022946184430F0F9FEBA
:1043A800069904A8FCF752FE079508909DF824305A
:1043B800089A23B11F490B6943F080030B61013E42
:1043C8002DD0002A9FD1FFF75FFF50B32CE06588FE
:1043D8008DF80DB0C5F30B05AB1DADF8083023887B
:1043E800C3F30B02ADF80A201B0B062202A904A88E
:1043F8008DF80C30FCF784FE062202A94046FCF733
:10440800DBFA616880462A4604A8FCF779FE6168F1
:1044180040462A46FCF7D0FA143480469EE7002A24
:10442800D1D00520FDF7AEFF0BB0BDE8F08F00BF7F
:10443800000004080020024023016745D253030806
:10444800F0B5030800F0030850BA030808B518F0DF
:10445800BFFBFFF74FFF18F0A3FBFFF76BFD012031
:10446800BDE8084015F0C0B808B5FCF7A5FF18F07E
:10447800AFFBFFF73FFFBDE8084018F091BB00BF56
:1044880008B518F0A5FBFFF735FFBDE8084018F0A0
:1044980087BB00BF0378202B024600F10100F9D04A
:1044A800092BF7D02D2B2CD02B2B03BF5378B7EE2D
:1044B800000A0246B7EE000AA3F13001C8B2092883
:1044C8009FED467A10D8F2EE046A07EE901AF8EEDD
:1044D800E77A12F8013FE7EE267AA3F13001C8B275
:1044E8000928B0EE677AF0D92E2B4CD003F0DF0301
:1044F800452B0BD0F7EE007A67EE276A20EE260AE6
:1045080070475378BFEE000A0246D5E710B45178D9
:104518002D2959D02B290ABF9178501C901C0024B2
:10452800A1F13003092B53D8002303EB830301EBDC
:10453800430310F8011FA1F13002092AA3F1300347
:10454800F3D9B3F59A7F28BF4FF49A73072B42D952
:10455800DFED236A1A46F7EE007A083A072A67EE73
:10456800A67AFAD803F007032BB1F2EE046A013BEE
:1045780067EEA67AFBD124B3C7EE276A5DF8044B31
:1045880020EE260A70475378A3F13001C8B20928F3
:1045980002F10102AAD8F2EE046AF0EE665A07EEBA
:1045A800901AF8EEE77A12F8013F87EEA66AA3F1AF
:1045B8003001C8B2092866EEA56A37EE067AEED948
:1045C80094E767EE276AD9E7901C91780124A7E75A
:1045D800F7EE007ACFE7F7EE007AC5E700000000B3
:1045E80020BCBE4CB5EEC00ADFED317AF1EE10FA10
:1045F800CCBF30EE270A30EE670ADFED2E7A20EEC8
:10460800270A30B5FDEEC07A87B017EE904A054606
:1046180084EAE470002303A9A0EBE47001930093FB
:1046280002931DF0E3FC002CACBF20232D2303A82C
:104638008DF800302DF028FA012803A924D002288B
:104648002DD0032805BF3023684668468DF8013011
:1046580030F0C5FD68462DF017FA0338C4B222467B
:104668006946284630F019FE00232B5528462DF0C0
:104678000BFA2E22431C2A540DEB0401E81830F0E3
:10468800CBFD284607B030BD302368468DF8013091
:104698008DF802308DF8033030F0A1FDDAE73023D1
:1046A80068468DF801308DF8023030F098FDD1E77A
:1046B8006F12033A00007A442DE9F0410646154688
:1046C8000846B6FBF2F43CB905FB1464124B1B5DBB
:1046D80000F8013BBDE8F081B4FBF2F767B90E4B77
:1046E80005FB174705FB1464DA5D00F8012B1B5D19
:1046F80000F8013BBDE8F081B7FBF2F8B8F1000F14
:1047080002D04046FFF7D8FF05FB1878024B13F894
:10471800082000F8012BE3E7587C03080368591CBC
:104728001A46016012F8021B0260587841EA00201C
:10473800704700BF03685A1C02601878704700BFB2
:1047480038B50446006815462EF058FA22682A44FF
:10475800226038BD036810B40A0A5C1C04601A7031
:1047680003685A1C026019705DF8044B704700BF5B
:1047780003685A1C026010B4197003680A0A5C1CAA
:1047880004601A7003680A0C5C1C04601A700368E1
:10479800090E5A1C026019705DF8044B704700BF7F
:1047A80003685A1C026019700368090A5A1C0260DF
:1047B80019707047442800F077822DE9F0470C46BD
:1047C80042D9812800F0128200F28D80542800F02E
:1047D800C38040F29F816E2800F06C82802840F0F0
:1047E8000282B84B93F8009009F1020919F0FF0909
:1047F80000F08D80B44BB54FB54EDFF814A3994443
:1048080003F101080A2516E0322D00F09482A5F183
:104818003C00C0B2132840F2968200232268511C43
:10482800216015702268C14502F1010121601370F1
:104838006DD018F8015B0A2DE6D1BAF80030FF2BCD
:10484800A8BFFF23DBB2E9E7052800F01B821AD8CE
:10485800022879D040F2FE80032800F0BA810428AB
:1048680040F0C18102469B492046FFF769FF0021BD
:104878002046FFF795FF23680022591C21601A7013
:104888000120BDE8F087242856D040F2F680282879
:1048980000F05D81382840F0A6810A688E4B01201F
:1048A800511C2160107022680521151825601170AF
:1048B80022680A2115182560117022680021151830
:1048C8002560117022681978151825601170226802
:1048D800597815182560117022689B781118216085
:1048E8001370BDE8F087A02814D040F28380B82860
:1048F80000F06781FE2840F07681784D05F10806C2
:1049080035F8021B2046FFF74BFFAE42F8D10120D5
:10491800BDE8F087724B08461968FFF729FF714B0D
:1049280020461968FFF724FF6F4B20461968FFF7E8
:104938001FFF0120BDE8F0876C4B08461968FFF798
:1049480017FF0120BDE8F087084604226849FFF7F1
:10495800F7FE0120BDE8F0870B68664F591C01225D
:1049680021601A70236800259A1822601D70236838
:1049780097F85B20591C21601A70236897F85A2011
:10498800591C21601A70B7F856102046FFF708FF27
:1049980029462046FFF704FFB7F858102046FFF7CE
:1049A800FFFEBD1E07F1480635F8021F2046FFF737
:1049B800F7FEAE42F8D122684F4B0C21501C206004
:1049C8005D181170226813F8011F501C9D42206069
:1049D8001170F7D123680222591C21601A70B7F8A8
:1049E8005C102046FFF7DCFEB7F85E102046FFF7A4
:1049F800D7FE8CE7822840F0F6800B683F4A404D8E
:104A08001178404A581C2060197011892046FFF718
:104A1800C7FE3D4B22681B88FF2B02F10101A8BF8E
:104A2800FF2321601370A96881F31001204689B221
:104A3800FFF7B6FE296801F30F01204689B2FFF798
:104A4800AFFE2368314A591C127821601A70012080
:104A5800BDE8F087012840F0C6800B680022591C89
:104A680021601A7023685A1C226018702368242257
:104A7800591C21601A70BDE8F087202840F0B380E7
:104A88000B68204D591C6A7821601A7023682A78AF
:104A9800591C21601A702368AA78591C21601A7061
:104AA80029892046FFF77CFE23686A79591C216012
:104AB8001A702368AA79591C21601A700120BDE870
:104AC800F08700BFB1570020D453030867666666B5
:104AD8002426002031430020795D0020D45700208F
:104AE800ACF7FF1FB0F7FF1FB4F7FF1FE05E002011
:104AF800807C0308BC5A0020055B0020BA580020BF
:104B08005C580020285B002068580020945B002037
:104B18004C260020522866D10A68A44E531C032153
:104B2800236006F10C071170334606200121226824
:104B3800551C2560117022689F4202F10101216015
:104B4800107000F0D7809979D8790633EFE70B68B1
:104B5800DFF89C82964E591C022221601A70236845
:104B680006275A1C22601F7023680A22591C2160DC
:104B78001A70236801255A1922601D70B8F80010B0
:104B88002046FFF70DFEB8F802102046FFF708FE92
:104B980023685A1922601F7023685022591921600E
:104BA8001A7023680022591921601A70318820462A
:104BB800FFF7F6FD20467188FFF7F2FD2846BDE8AD
:104BC800F0877C4B08461968FFF7D2FD0120BDE845
:104BD800F0870B685A1C0A6018700B680222591C6F
:104BE80021601A7047E60020BDE8F087724B1E78F6
:104BF800043616F0FF063FF48AAE704B704F1E4421
:104C080003F101094FF00A0824E0B8F1500F00F051
:104C18009880B8F15A0F00F0AB80B8F1320F00F06D
:104C2800AA80A8F13C00C0B2132840F2A780002552
:104C3800294623685A1C2260204683F80080FFF723
:104C4800AFFD29462046FFF7ABFD4E453FF45FAE6A
:104C580019F8018BB8F10A0FD7D15A4B9D6819681A
:104C680005EB85054FF6FF736D009D42A8BF1D46F5
:104C78009942A8BF194625EAE57521EAE171ADB266
:104C880089B2D6E720460B224F49FFF759FD204647
:104C980008224E49FFF754FD204607224C49FFF7EA
:104CA8004FFD0120BDE8F087002A42D0494B136030
:104CB80001207047484B0A681B88484DFF2BA8BF46
:104CC800FF23511C21601370A96881F3100120464D
:104CD80089B2FFF765FD424B20461988FFF760FD52
:104CE800296801F30F01204689B2FFF759FD012019
:104CF800BDE8F0873B4B21681A78481C20600A7091
:104D0800002A3FF404AE013AD2B202EB420206EBAB
:104D180042025278002A3FF4FAAD0132D518013325
:104D2800226813F8011F501C9D4220601170F7D1B2
:104D3800EDE5012070473388FF2BA8BFFF23DBB2C6
:104D48006CE5294B8AE722F03BFB00283FF465AD70
:104D580003780A2B28D8B0F9023087FB0312DB1737
:104D6800C3EBA2039BB2FF2BA8BFFF23DBB255E521
:104D78001E4B5D6873E797E8220071E722F020FB7D
:104D880000283FF454AF03780A2B3FF650AFB0F930
:104D98000430B0F9061003EB830383F3500521EACE
:104DA800E171ADB289B244E70023DFE79858030800
:104DB8000026002018350020B1570020E4530308CE
:104DC80010260020CC250020887C0308947C03084A
:104DD800A07C0308A10D0008685800205C5800203A
:104DE800585B00202C4C0020042600201C260020A4
:104DF800182100202DE9F047002488B080460F468E
:104E08001E46A14605AD531C0393117839B32529D5
:104E180033D1931CCDF810900393507830284ED09E
:104E28004FF0000AA0F13003DBB2092B42D96C28FD
:104E380019D0642800F0938024D825281CD063D981
:104E4800582876D063281BD131784046B847039A52
:104E5800531C03931178043601340029D7D1204616
:104E680008B0BDE8F087039B5A1C03921B78642B9B
:104E78007CD02AD8252B54D1252140460134B84767
:104E8800039AC0E7732833D044D975284FD106F167
:104E9800040E30682B4600220A217646FBF782FC76
:104EA800049A0095534639464046FBF7B9FC039AE5
:104EB8000444A8E704AA03A91FF090FBB7E7D31C92
:104EC800039390784FF0010AACE7732B10D05BD9AD
:104ED800752B3AD0782B96D1A3F15802B2FA82F208
:104EE800306852092B4610210436FBF75BFCD7E7E4
:104EF8003368049A0093394600234046FBF790FC38
:104F080004360444039A7EE70028B9D1204608B045
:104F1800BDE8F0876E28B3D1039A336804361C6065
:104F280071E72AD9582BD7D0632B8DD06BE7782817
:104F3800A6D1A0F15802B2FA82F2306852092B4683
:104F48001021FBF72FFC0436AAE706F1040E30689F
:104F58002B4600220A217646FBF724FCA0E7331DE6
:104F6800306829461E46FBF7EFFB99E7331D30688A
:104F780029461E46FBF7E8FB92E7002B7FF443AF78
:104F8800204608B0BDE8F0876E2BC6D03BE700BFCF
:104F98000EB400B584B005AB019053F8042B064954
:104FA800039301A8FFF726FF019B00221A7004B0A3
:104FB8005DF804EB03B070471D0800080FB430B566
:104FC80083B006AB0B490C4853F8042B09680068FA
:104FD8000193FFF70FFF094C0546206803685B69DA
:104FE80098470028F9D0284603B0BDE8304004B0FF
:104FF800704700BFB42D0020B82D002004200020E9
:10500800DFED2B7AB4EEE70AF1EE10FA4ADDDFEDB8
:10501800296A9FED297A01E0B0EE670AB4EEC70A63
:10502800F1EE10FA70EE667AF6DC9FED247AF4EE73
:10503800C77AF1EE10FA38D5DFED1E6A9FED207AB7
:1050480001E0F0EE407AF4EEC77AF1EE10FA37EEAE
:10505800A60AF6D4DFED1B7AB4EEE70AF1EE10FAF1
:1050680014DDDFED137A37EEC00A60EE006A9FEDBB
:10507800166A9FED167ADFED167AA6EE867A20EE8E
:10508800266AE6EE877AA6EE270A7047DFED117AE0
:10509800B4EEE70AF1EE10FA44BFDFED087A37EE16
:1050A800C00AE2E7F0EE407ABFE7B0EE670AD1E760
:1050B800DB0F4940DB0FC940E4CB1641DB0F49C089
:1050C800E4CB16C1DB0FC93F92E741B99730083CE2
:1050D80015A82ABEDB0FC9BF80EAE073A3EBE07313
:1050E8008B4205DB002801DD401A704702D170476A
:1050F800002070470844704709B909E0194690FB39
:10510800F1F301FB13030846002BF7D1084670475B
:105118000146FBE710B507EE901A2DED028BB8EEAD
:10512800678ADFED217A28EE008A044628EE278A6E
:10513800B0EE480A2DF0B8FFF0EE408AB0EE480A0B
:105148002DF014FFF7EE007A9FED187AF0EE675A0B
:10515800E8EE875A0023A361B0EE676AC7EEA56A36
:1051680063612362E361A8EEC76ABDEC028B77EE48
:10517800C07AB6EE007AF8EE005A27EE877A20EE6B
:10518800250A27EE267A26EE266A67EEA67A20EE0C
:10519800260A84ED046AC4ED017A84ED007A84ED70
:1051A800027A84ED030A10BD27D4D236F304353FC2
:1051B80010B44C09012250F8243001F01F0102FA02
:1051C80001F10B4340F824305DF8044B704700BFF1
:1051D8004B0901F01F0150F82320012303FA01F1C4
:1051E800114214BF18460020704700BFF0B55B4B52
:1051F8005B4A97B01968914200AF00F0A380594903
:10520800594A00234FF47000C1F888003B607B6066
:10521800136843F48033136003E03B68B3F5A04F91
:1052280009D0136803F400337B603B6801333B60AB
:105238007B68002BF1D04C4B1B6813F4003318BF6C
:1052480001237B607B68012B52D0464C464B474A72
:10525800E260474A596A11605A6A42F080725A629B
:105268005A6942F4FC025A610025032207F1080139
:10527800012341F6FF764FF09040FD60BE603A731F
:10528800BB7326F021FF4FF6FF7307F10801394879
:10529800BB6026F019FF07F108013748374E26F0A2
:1052A80013FF07F10801364826F00EFF07F1080141
:1052B800344826F009FF07F10801334826F004FFB7
:1052C80007F1080026F05AFFBB683049304AA1FBB5
:1052D800031330499B0CF0204FF0070E5C370B602E
:1052E800566084F823009560C2F800E0BD46F0BD22
:1052F800294A1D4B122111605A685A605A685A602F
:105308005A6842F480625A605A6822F47C125A60E1
:105318005A6842F4E8125A601A6842F080721A60B9
:105328001A689201FCD559680F4A21F003015960A7
:10533800596841F002015960536803F00C03082BC7
:10534800FAD182E700221A6062B6144B1B6883F315
:105358000888134B1B689847FEE700BFFC9F002096
:10536800EFBEADDE00ED00E0001002400005FA05DA
:10537800244A002000040048000800483F190100A2
:10538800000C0048001000480014004883DE1B434E
:1053980010E000E06C6300200020024000D8FF1FEE
:1053A80004D8FF1F064A00235168814202F11C02FB
:1053B80004D001330C2BF7D100207047D8B27047C6
:1053C8009C00002070B50F4C0F4DC0EBC00004EBE3
:1053D8008004686926693043686182B09209667BF7
:1053E800A1600025012101A863618DF804608DF892
:1053F80005208DF806508DF8071026F059FD02B0EB
:1054080070BD00BF9C00002000100240074BC0EB9D
:10541800C00030B403EB8000054C056963692B4379
:1054280063610176427630BC704700BF9C00002063
:10543800001002402DE9F04F554C54F8204083B03D
:10544800002C60D0656D1F469046524B6A68E26436
:10545800A160236004F15A014FF4807304F5AD7222
:105468006161A261E36023610646287E24F060FD45
:10547800E86858B1FFF796FF721CD2B20C21FFF70B
:10548800C5FFE36CEA6822632433A364A86890B17B
:10549800FFF788FF721C8146D2B20B21FFF7B6FFD7
:1054A8002346EA7E3C494846FFF78CFFE36CAA682E
:1054B80062632833636494F85900FCF743FD81461E
:1054C80094F85800FCF73EFD3A07824695F819B063
:1054D8001DD5B9F1000F1AD017F0110F4FF00B03BB
:1054E80006F1010614BF4E213E2189F8063089F8DD
:1054F80007605A464846FCF785F9FB0743D5236BF6
:105508006BB3636B5BB3204603B0BDE8F08F17F055
:10551800010F0CBF2E274E2718F0020F0DD0B9F13E
:10552800000F0AD00B22731C89F8062089F807306F
:1055380048465A463946FCF765F918F0010FDED09F
:10554800BAF1000FDBD001360C238AF807605A46FF
:1055580039468AF806305046FCF754F9CFE72B7FD6
:10556800AA7E8DF804209B090021012201A88DF84C
:1055780005308DF806108DF8072026F099FC204696
:1055880003B0BDE8F08F4846FDF7E6FFB7E700BF78
:10559800C02D0020F4530308D90C00080348D0F8A4
:1055A8003C3113B100F59A70184770479C000020F1
:1055B8000348D0F8203113B100F58C7018477047B4
:1055C8009C0000200348D0F804310BB1FC30184788
:1055D800704700BF9C0000200348D0F8E8300BB1AA
:1055E800E0301847704700BF9C0000200348D0F8FF
:1055F800CC300BB1C4301847704700BF9C00002066
:105608000348D0F8B0300BB1A8301847704700BF36
:105618009C0000200348D0F894300BB18C30184718
:10562800704700BF9C0000200248836F0BB17030A8
:10563800184770479C0000200248C36D0BB15430D6
:10564800184770479C0000200248036C0BB13830A3
:10565800184770479C0000200248436A0BB11C3071
:10566800184770479C0000200248836803B1184718
:10567800704700BF9C000020F0B53E4C059D00EB34
:10568800800004EB80046468002C71D03A4E490015
:105698004FF42040CFB2F061A169090454D4606886
:1056A800DFF8E0E047F4903100EA0E0001434FF4E0
:1056B80020406160F06103E0411E002848D00846A0
:1056C800A1698907F8D54FF42040A262F06103E090
:1056D800421E00283CD01046A2695206F8D5274A37
:1056E8006168DFF8A0E0F06142EA0342174301EA8B
:1056F8000E0217436760C3B1013BDBB201332B4491
:10570800A0694FF4204210F0040002F1FF3207D1E3
:10571800511C26D0A06910F0040002F1FF32F7D026
:10572800626A05F8012B9D42EAD14FF42040F061EE
:1057380002E0431E60B11846A3699B06F9D52023F1
:10574800F061E3610120F0BD411E08B10846A3E7FE
:105758000B4A138801339BB24FF0FF311380F1617C
:10576800F0BD0749F2610B8801339BB20B80F0BD95
:105778002046F0BD94630020C01E002000240002D3
:10578800F4330020009800FC70B590F904506C1CAC
:1057980082B00AD0022D08DC16460A4641790096E6
:1057A8002846FFF769FF02B070BD002002B070BD47
:1057B80070B50378012B82B004D106236A46F7211D
:1057C800FFF7E2FF9DF801209DF804309DF8006086
:1057D8009DF803509DF802409DF805000749120105
:1057E8001B0142EA063243EA053342EA141243EA4D
:1057F8001013CA608B6002B070BD00BFC01E0020CD
:1058080000B583B0002000920A466821FFF734FFF4
:1058180003B05DF804FB00BFF0B4334C00EB80002C
:1058280004EB80046468002C5BD0304E49004FF4D0
:105838002040CDB2F061A169090444D460682C4FBE
:1058480045F08071384041F4903101434FF42040D5
:105858006160F06103E0411E002838D00846A16964
:105868008F07F8D54FF42040A262F06102E0421E93
:1058780068B31046A2691106F9D562681C4945F05B
:10588800007545F480350A4015434FF420406560A3
:10589800F06102E0421ED0B11046A2699207F9D524
:1058A800A362A3694FF420409B06F06105D4431E10
:1058B80068B11846A3699B06F9D52023F061E36116
:1058C8000120F0BC7047411E08B10846B3E7094AF9
:1058D800138801339BB24FF0FF31F1611380F0BCA4
:1058E80070472046F0BC704794630020C01E00201B
:1058F800009800FCF43300200378012B00D0704797
:1059080090F904305A1CFAD0022BF8DC4179F422C1
:105918001846312380E700BF134600200A46682155
:105928007AE700BF1749184B184A194810B4D1F83C
:10593800884044F47004C1F888401C6844F00104AD
:105948001C605C6822405A601A6822F0847222F453
:1059580080321A601A6822F480221A605A6822F487
:10596800FE025A60DA6A22F00F02DA621A6B002429
:1059780010404FF0006218639C608A605DF8044B29
:10598800704700BF00ED00E0001002400CC07FF837
:10599800CCFC00FF2DE9F04F80462DED028BB0F9CD
:1059A80008000881C5B28FB028460C469146FEF71C
:1059B80001FF40B101231A46184662810FB0BDECC1
:1059C800028BBDE8F08FA5F10A03E72B00F2EA800D
:1059D800DFE813F0A906E800E800E800E800E800BE
:1059E800E800E800E800E800E800E800E800E8006F
:1059F800E800E800E800E800E800E800E800E8005F
:105A0800E800E800BC06E800E800E800DB06E8007B
:105A1800E800E800D305E800D805E8001906E80022
:105A28003206E8003E06E8004306E8006906E8009A
:105A3800E800E800BD01C401E800CC01E800E80086
:105A4800DA01E800E201E800E800E800B001E80057
:105A5800E800E800E8000B02E8002602E800660219
:105A68008C02E800E800E800E800E800E800E80048
:105A7800B002E800E402E8000E03E8003E03E80094
:105A88009303E800E800E800E800A303E4031F0428
:105A980028047204E800E80059048404E800920429
:105AA800CB04E800E800E800E800E804E800E800C3
:105AB800F404E800E800E800160527054005840519
:105AC800E800E800E800C205E80038070A07E8002F
